:100000000C94301D0C94581D0C94581D0C94581DC4
:100010000C94581D0C94581D0C94581D0C94581D8C
:100020000C94581D0C94581D0C94C2250C94312628
:100030000C94581D0C94581D0C94581D0C94581D6C
:100040000C94581D0C940D290C94581D0C94581D9B
:100050000C94581D0C94581D0C94581D0C94632836
:100060000C94581D0C94581D0C94581D0C94581D3C
:100070000C94581D0C94581D0C94581D0C94581D2C
:100080000C94AD280C94581D0C94581D0C94581DBC
:100090000C94581D0C94581D0C94581D0C94581D0C
:1000A0000C94581D0C94581D0C94581D0000000011
:1000B000003E5B4F5B3E3E6B4F6B3E1C3E7C3E1CEE
:1000C000183C7E3C181C577D571C1C5E7F5E1C0034
:1000D000183C1800FFE7C3E7FF0018241800FFE7EB
:1000E000DBE7FF30483A060E2629792926407F05AE
:1000F0000507407F05253F5A3CE73C5A7F3E1C1CC4
:1001000008081C1C3E7F14227F22145F5F005F5F83
:1001100006097F017F006689956A6060606060946F
:10012000A2FFA29408047E040810207E2010080874
:100130002A1C08081C2A08081E101010100C1E0C7F
:100140001E0C30383E3830060E3E0E060000000011
:100150000000005F00000007000700147F147F14F8
:10016000242A7F2A1223130864623649562050003D
:1001700008070300001C2241000041221C002A1C29
:100180007F1C2A08083E0808008070300008080814
:100190000808000060600020100804023E51494534
:1001A0003E00427F400072494949462141494D3352
:1001B0001814127F1027454545393C4A49493141B9
:1001C000211109073649494936464949291E000087
:1001D00014000000403400000008142241141414DC
:1001E0001414004122140802015909063E415D59C8
:1001F0004E7C1211127C7F494949363E41414122D1
:100200007F4141413E7F494949417F090909013EFA
:10021000414151737F0808087F00417F4100204021
:10022000413F017F081422417F404040407F021C33
:10023000027F7F0408107F3E4141413E7F0909094A
:10024000063E4151215E7F09192946264949493216
:1002500003017F01033F4040403F1F2040201F3FDC
:100260004038403F63140814630304780403615961
:10027000494D43007F4141410204081020004141A3
:10028000417F04020102044040404040000307084F
:100290000020545478407F2844443838444444284B
:1002A000384444287F385454541800087E090218F2
:1002B000A4A49C787F0804047800447D400020407A
:1002C000403D007F1028440000417F40007C0478BE
:1002D00004787C080404783844444438FC18242406
:1002E0001818242418FC7C08040408485454542486
:1002F00004043F44243C4040207C1C2040201C3C03
:100300004030403C44281028444C9090907C4464F9
:10031000544C44000836410000007700000041368C
:10032000080002010204023C2623263C1EA1A16112
:10033000123A4040207A3854545559215555794144
:100340002154547841215554784020545579400C1B
:100350001E527212395555555939545454593955FC
:100360005454580000457C410002457D420001453F
:100370007C40F0292429F0F0282528F07C545545AC
:10038000002054547C547C0A097F4932494949323F
:100390003248484832324A4848303A4141217A3A54
:1003A00042402078009DA0A07D39444444393D401E
:1003B00040403D3C24FF2424487E4943662B2FFCCB
:1003C0002F2BFF0929F620C0887E09032054547979
:1003D000410000447D413048484A32384040227A4A
:1003E000007A0A0A727D0D19317D2629292F2826C7
:1003F0002929292630484D402038080808080808CF
:100400000808382F10C8ACBA2F102834FA00007B27
:10041000000008142A142222142A1408950022002D
:1004200095AA005500AAAA55AA55AA000000FF00E7
:10043000101010FF00141414FF001010FF00FF1024
:1004400010F010F0141414FC001414F700FF000056
:10045000FF00FF1414F404FC141417101F10101FD5
:10046000101F1414141F00101010F0000000001FC3
:10047000101010101F10101010F010000000FF10CE
:100480001010101010101010FF10000000FF1400CA
:1004900000FF00FF00001F10170000FC04F41414FC
:1004A0001710171414F404F40000FF00F7141414C8
:1004B00014141414F700F7141414171410101F1048
:1004C0001F141414F4141010F010F000001F101F6B
:1004D0000000001F14000000FC140000F010F010D9
:1004E00010FF10FF141414FF141010101F00000050
:1004F00000F010FFFFFFFFFFF0F0F0F0F0FFFFFF54
:100500000000000000FFFF0F0F0F0F0F38444438AA
:10051000447C2A2A3E147E02020606027E027E02E5
:1005200063554941633844443C04407E201E200604
:10053000027E020299A5E7A5991C2A492A1C4C7241
:1005400001724C304A4D4D303048784830BC625AC8
:10055000463D3E494949007E0101017E2A2A2A2A58
:100560002A44445F444440514A444040444A514034
:100570000000FF0103E080FF000008086B6B0836F5
:1005800012362436060F090F060000181800000066
:100590001010003040FF0101001F01011E00191D55
:1005A0001712003C3C3C3C00000000000000000032
:1005B000240027002A002D00300000000000250044
:1005C00028002B002E00310004080201104080405A
:1005D0001020408040800802040180402010020169
:1005E0001080102040402004040404040304050289
:1005F00002020204030202020206060606060604BE
:1006000004020202040406011501260137014A0111
:100610005D01720188019F01B801D201EE010B0258
:100620002A024B026E029302BA02E40210033F0355
:100630007003A403DC03170455049704DD042705A5
:100640007505C80520067D06E0064907B8072D0890
:10065000A9082D09B9094D0AEA0A900B400CFA0CB9
:10066000C00D910E6F0F5A1053115B1272139A1432
:10067000D41520178018F519801B231DDE1EB42009
:10068000A622B524E4263429A72B402E0031EA33D4
:100690000037453ABC3D68414C456B49C84D6852EE
:1006A0004F57805C006210111213151617181A1C90
:1006B0001D1F21232527292C2E3134373A3E414551
:1006C000494E52575C62686E757B838B939CA5AFD5
:1006D000B9C4D0DCE9F7F0F89C8E8783878E9CF84C
:1006E000F00000FEFF0303030303070EFCF8000005
:1006F000FEFF0303030303070EFCF80000FFFF00E7
:10070000000000000000FFFF0000FEFF83838383E2
:1007100083C7EE7C380000F8FC0E07030303070EC6
:10072000FCF800003F7FE0C08080C0E07F3FFFFF1B
:1007300001010101010101FFFF0000FFFF0C0C0C92
:100740000C1C3E77E3C100007FFFC0C0C0C0C0E00A
:10075000703F1F00001F3F70E0C0C0C0E0703F1F2F
:1007600000007FFFC1C1C1C1C1E3773E1C00001F73
:100770003F70E0C0C0C0E0703F1F000000000001FB
:10078000FFFF01000000D5F08D14A1C881CFD9F181
:10079000AF20000A0A78864A310101314A86780082
:1007A00001010202020201010078A622418107092B
:1007B000129678000101020302020101007886020C
:1007C0008549498502867800010102020202010181
:1007D000007896120907814122A6780001010202E1
:1007E0000302010100100818242BA2E324A4E4242E
:1007F000489E919589423C1824ABE223A4E424242A
:10080000489E919589423C101048244224122110A0
:1008100048444844222010000012244224488408FE
:100820001222122244040800002412211209104846
:100830002422241211100808002448844890081229
:10084000244424488808101000180E000038C420E2
:100850001010101010101010101090504F464457E8
:1008600046582000000000013E023E020202023E05
:10087000023F000000000000000000081020C0201F
:100880001010101010101010101090504F464457B8
:100890004658200000002019261A0602020202060D
:1008A0001A27182000000000000000404040C0202F
:1008B0001010101010101010101090504F46445788
:1008C0004658200000201029160A060202020206DD
:1008D0000A17281020000000000000008040C020FF
:1008E0002020202020202020202020A09E8C88AEA8
:1008F0008CB0400300002019261A060202020206EC
:100900001A26192000000000000000404040C020CE
:100910002020202020202020202020A09E8C88AE77
:100920008CB04000000000013E023E020202023E86
:10093000023E010000000000000000081020C0205E
:100940002020202020202020202020A09E8C88AE47
:100950008CB04000000000010E12260A12120A2676
:10096000120E010000000000000000020306010159
:1009700006030404036261726B733A00746F2072A1
:100980006574727900707265737320616E7920628C
:100990007574746F6E0047616D65204F76657200E7
:1009A0000C0C7070FCFEFFFF008850205088000087
:1009B000010307070000000000000C0C7070FCFE33
:1009C000FFFF0004F902FC0000000103070700011B
:1009D00004020100413A20202020423A2042616373
:1009E0006B002074696D65002D204261726B73206D
:1009F000726566696C6C206F766572002062617248
:100A00006B20737175697272656C7320617761799F
:100A1000002D205072657373204120627574746FCD
:100A20006E20746F002D2041766F6964207371759C
:100A3000697272656C73002D20436F6C6C65637412
:100A40002062616C6C7300202020202042203E2018
:100A500048656C7000486F6C642041203E205374E0
:100A6000617274004C657420476F210037200000CC
:100A7000000000C03886010E100E017E40C08000CC
:100A80000000000000000000000000000000000066
:100A90000000000000000000000000040CF408F05A
:100AA00000000000000C1222322920101008081843
:100AB0003020E000000103020202020202020202F0
:100AC00002020202020202060404040408884848E2
:100AD0004464242211080700000000000000000008
:100AE000000000000000000000010F081810F000D6
:100AF000F010101010101010101010101010F00046
:100B0000F0100806010000000000000000000000D6
:100B100000000000000000000000000000000000D5
:100B2000000040A0A09F807F0000000000000000A7
:100B3000000040A0A09F807F000000000000000097
:100B4000000000000000000000000000000000C0E5
:100B50003886010E100E017E40C0800000000000AB
:100B60000000000000000000000000000000000085
:100B700000000000000000040CF408F00000000079
:100B8000000C122232292010100808183020E00032
:100B90000001030202020202020202020202020237
:100BA000020202060404040408884848446424221B
:100BB0001108070000000000000000000000000015
:100BC0000000000000010F081810F000F0101010D5
:100BD00010101010101010101010F000F010080677
:100BE0000100000000000000000000000000000004
:100BF000000000000000000000000000000040A015
:100C0000A09F807F0000000000000000000040A0C6
:100C1000A09F807F00000000000000000000000096
:100C20000000000000000000000000C03886010E37
:100C3000100E017E40C08000000000000000000097
:100C400000000000000000000000000000000000A4
:100C5000000000000002FC08F0000000000C12225E
:100C600032292010100808183020E000000103028B
:100C70000202020202020202020202020202020650
:100C8000040404040888484848442424120904033E
:100C90000000000000000000000000000000000054
:100CA00000010F081810F000F010101010101010B4
:100CB000101010101010F000F010080601000000D5
:100CC0000000000000000000000000000000000024
:100CD0000000000000000000000040A0A09F807FF6
:100CE0000000000000000000000040A0A09F807FE6
:100CF00000000000000000000000000000000000F4
:100D00000000000000000080700C021C201C02FC8F
:100D100080800000000000000000000000000000D3
:100D200000000000000000000000000000000000C3
:100D30000000008078F00000001824446452412034
:100D4000211010306040C0000103060404040404B4
:100D500004040404040404040404040C080808083B
:100D60001010909090884848241209040300000055
:100D700000000000000000000000000000031E1042
:100D80003020E000E02020202020202020202020F3
:100D90002020E000E020100C030000000000000014
:100DA0000000000000000000000000000000000043
:100DB00000000000000040A0A09F807F0000000015
:100DC00000000000000040A0A09F807F0000000005
:100DD0000000000000000000000000000000000013
:100DE00000000000E0180438403804F8000000005B
:100DF00000000000000000000000000000000000F3
:100E000000000000000000000000000000000000E2
:100E10000000C00000304888C8A483404220206001
:100E2000C080810103060C080808080808080808A3
:100E300008080808080808181010101020202020A2
:100E40002010909048641412090700000000000070
:100E5000000000000000000000073C206040C000CF
:100E6000C040404040404040404040404040C000C2
:100E7000C040201806010101010000000000000030
:100E80000000000000000000000000000000000062
:100E9000000040A0A09F807F000000000000000034
:100EA000000040A0A09F807F000000000000000024
:100EB0000000000000000000000000000000000032
:100EC000E0180438403804F800000000000000007A
:100ED0000000000000000000000000000000000012
:100EE0000000000000000000000000000000000002
:100EF00000304888C8A4834042202060C08081011F
:100F000003060C0808080808080808080808080864
:100F10000808081810101010202020202010909091
:100F2000482414120A06030100000000000000001B
:100F30000000000000073C206040C000C04040406E
:100F400040404040404040404040C000C040201829
:100F50000601010101000000000000000000000087
:100F6000000000000000000000000000000040A0A1
:100F7000A09F807F0000000000000000000040A053
:100F8000A09F807F00000000000000000000000023
:100F9000000000000000000000000000E01804381D
:100FA000403804F8000000000000000000000000CD
:100FB0000000000000000000000000000000000031
:100FC0000000000000000000000000000030488821
:100FD000C8A4834042202060C080810103060C0821
:100FE0000808080808080808080808080808081871
:100FF0001010101020202020201090904848282801
:101000002828101000000000000000000000000070
:1010100000073C206040C000C0404040404040408D
:10102000404040404040C000C0402018060101013F
:1010300001000000000000000000000000000000AF
:101040000000000000000000000040A0A09F807F82
:101050000000000000000000000040A0A09F807F72
:101060000000000000000000000000000000000080
:101070000000000000000080700C021C201C02FC1C
:101080008080000000000000000000000000000060
:101090000000000000000000000000000000000050
:1010A00000000000000000000018244464524120A9
:1010B000211010306040C000010306040404040441
:1010C00004040404040404040404040C08080808C8
:1010D0001010909090909090505050505050202070
:1010E00000000000000000000000000000031E10CF
:1010F0003020E000E0202020202020202020202080
:101100002020E000E020100C0300000000000000A0
:1011100000000000000000000000000000000000CF
:1011200000000000000040A0A09F807F00000000A1
:1011300000000000000040A0A09F807F0000000091
:10114000000000000000000000000000000000009F
:10115000000000C03886010E100E017E40C08000E5
:10116000000000000000000000000000000000007F
:10117000000000000000000000000000000000006F
:1011800000000000000C122232292010100808185C
:101190003020E00000010302020202020202020209
:1011A00002020202020202060404040408884848FB
:1011B000489090A0A0A02040404080000000000087
:1011C000000000000000000000010F081810F000EF
:1011D000F010101010101010101010101010F0005F
:1011E000F0100806010000000000000000010101ED
:1011F00002040F00000000000000000000000000DA
:10120000000040A0A09F807F0000000000000000C0
:10121000000040A0A09F807F0000000000000000B0
:10122000000000000000000000000000000000C0FE
:101230003886010E100E017E40C0800000000000C4
:10124000000000000000000000000000000000009E
:10125000000000000000000000000000000000008E
:10126000000C122232292010100808183020E0004B
:101270000001030202020202020202020202020250
:10128000020202060404040408884848489090209A
:1012900020408080000000000000000000000000EE
:1012A0000000000000010F081810F000F0101010EE
:1012B00010101010101010101010F000F010080690
:1012C000010000000000010202040409127C000079
:1012D000000000000000000000000000000040A02E
:1012E000A09F807F0000000000000000000040A0E0
:1012F000A09F807F000000000000000000000000B0
:101300000000000000002640000000000000000077
:1013100000000000000000000000000000000000CD
:1013200000000000000000000000000000000000BD
:1013300000000000000000000000C0E0603030301D
:1013400030303060E0C0000000000000000000000D
:101350000000000000000000000000000000003F4E
:10136000FFC08010222020221080C0FF3F0000001C
:10137000000000000000000000000000000000006D
:10138000000000000000000181C343FFFF43C38150
:10139000010000000000000000000000000000004C
:1013A00000000000000000000000000000FE03003C
:1013B00000FFFF000003FE0000000000000000002E
:1013C000000000000000000000000000000000001D
:1013D0000000000F0000C07F7FC000003F6C546C15
:1013E00038000000000000000000000000000000C5
:1013F00000000000000000000000F03E07000007B1
:101400003EF00000000000000000000000000000AE
:1014100000000000000000000000000080C0F03F5D
:1014200003000000000000033FF0C0800000000047
:1014300000000000000000000000000000000000AC
:10144000000000000000000000000000000000009C
:10145000000000000000000000000000000000008C
:1014600000000000000000000000C0E060303030EC
:1014700030303060E0C000000000000000000000DC
:101480000000000000000000000000000000003F1D
:10149000FFC08010222020221080C0FF3F000000EB
:1014A000000000000000000000000000000000003C
:1014B000000000000000000181C343FFFF4343C15F
:1014C000810000000000000000000000000000009B
:1014D00000000000000000000000000000FE03000B
:1014E00000FFFF00000001FF0000000000000000FE
:1014F00000000000000000000000000000000000EC
:101500000000000F0000C07F7FC00000001F362ACF
:10151000361C000000000000000000000000000079
:1015200000000000000000000000F03E070000077F
:101530003EF000000000000000000000000000007D
:1015400000000000000000000000000080C0F03F2C
:1015500003000000000000033FF0C0800000000016
:10156000000000000000000000000000000000007B
:10157000000000000000000000000000000000006B
:10158000000000000000000000000000000000005B
:1015900000000000000000000000C0E060303030BB
:1015A00030303060E0C000000000000000000000AB
:1015B0000000000000000000000000000000003FEC
:1015C000FFC08010222020221080C0FF3F000000BA
:1015D000000000000000000000000000000000000B
:1015E000000000000000000181C343FFFF4343C12E
:1015F00081800000000000000000000000000000EA
:1016000000000000000000000000000000FE0300D9
:1016100000FFFF00000000010F88F0808000000044
:1016200000000000000000000000000000000000BA
:101630000000000F0000C07F7FC000000000000716
:101640000D0A0D070000000000000000000000006F
:1016500000000000000000000000F03E070000074E
:101660003EF000000000000000000000000000004C
:1016700000000000000000000000000080C0F03FFB
:1016800003000000000000033FF0C08000000000E5
:10169000000000000000000000000000000000004A
:1016A000000000000000000000000000000000003A
:1016B000000000000000000000000000000000002A
:1016C00000000000000000000000C0E0603030308A
:1016D00030303060E0C0000000000000000000007A
:1016E0000000000000000000000000000000003FBB
:1016F000FFC08010222020221080C0FF3F00000089
:1017000000000000000000000000000000000000D9
:10171000000000000000000181C343FFFF4343C1FC
:1017200081800000000000000000000000000000B8
:1017300000000000000000000000000000FE0300A8
:1017400000FFFF0000000001070C18F060A060C05F
:101750000000000000000000000000000000000089
:101760000000000F0000C07F7FC0000000000000EC
:10177000000103020301000000000000000000005F
:1017800000000000000000000000F03E070000071D
:101790003EF000000000000000000000000000001B
:1017A00000000000000000000000000080C0F03FCA
:1017B00003000000000000033FF0C08000000000B4
:1017C0000000000000000000000000000000000019
:1017D0000000000000000000000000000000000009
:1017E00000000000000000000000000000000000F9
:1017F00000000000000000000000C0E06030303059
:1018000030303060E0C00000000000000000000048
:101810000000000000000000000000000000003F89
:10182000FFC08010222020221080C0FF3F00000057
:1018300000000000000000000000000000000000A8
:10184000000000000000000181C343FFFF4343414B
:101850004140C08080000000000000000000000047
:1018600000000000000000000000000000FE030077
:1018700000FFFF000000000000000103067CD8A864
:10188000D870000000000000000000000000000010
:101890000000000F0000C07F7FC0000000000000BB
:1018A0000000000000000000000000000000000038
:1018B00000000000000000000000F03E07000007EC
:1018C0003EF00000000000000000000000000000EA
:1018D00000000000000000000000000080C0F03F99
:1018E00003000000000000033FF0C0800000000083
:1018F00000000000000000000000000000000000E8
:1019000000000000000000000000000000000000D7
:1019100000000000000000000000000000000000C7
:1019200000000000000000000000C0E06030303027
:1019300030303060E0C00000000000000000000017
:101940000000000000000000000000000000003F58
:10195000FFC08010222020221080C0FF3F00000026
:101960000000000000000000000000000000000077
:10197000000000000000000181C343FFFF4343411A
:1019800041404040808080808000000000000000D6
:1019900000000000000000000000000000FE030046
:1019A00000FFFF0000000000000000000000011F19
:1019B000362A361C00000000000000000000000075
:1019C0000000000F0000C07F7FC00000000000008A
:1019D0000000000000000000000000000000000007
:1019E00000000000000000000000F03E07000007BB
:1019F0003EF00000000000000000000000000000B9
:101A000000000000000000000000000080C0F03F67
:101A100003000000000000033FF0C0800000000051
:101A200000000000000000000000000000000000B6
:101A300000000000000000000000000000000000A6
:101A40000000000000000000000000000000000096
:101A500000000000000000000000C0E060303030F6
:101A600030303060E0C000000000000000000000E6
:101A70000000000000000000000000000000003F27
:101A8000FFC08010222020221080C0FF3F000000F5
:101A90000000000000000000000000000000000046
:101AA000000000000000000181C343FFFF434341E9
:101AB0004140404040404040404040C060A060C085
:101AC00000000000000000000000000000FE030015
:101AD00000FFFF0000000000000000000000000008
:101AE00000010302030100000000000000000000EC
:101AF0000000000F0000C07F7FC000000000000059
:101B000000000000000000000000000000000000D5
:101B100000000000000000000000F03E0700000789
:101B20003EF0000000000000000000000000000087
:101B300000000000000000000000000080C0F03F36
:101B400003000000000000033FF0C0800000000020
:101B50000000000000000000000000000000000085
:101B60000000000000000000000000000000000075
:101B70000000000000000000000000000000000065
:101B800000000000000000000000C0E060303030C5
:101B900030303060E0C000000000000000000000B5
:101BA0000000000000000000000000000000003FF6
:101BB000FFC08010222020221080C0FF3F000000C4
:101BC0000000000000000000000000000000000015
:101BD000000000000000000181C343FFFF434341B8
:101BE00041404040202020101008080E1B151B0EFD
:101BF00000000000000000000000000000FE0300E4
:101C000000FFFF00000000000000000000000000D6
:101C100000000000000000000000000000000000C4
:101C20000000000F0000C07F7FC000000000000027
:101C300000000000000000000000000000000000A4
:101C400000000000000000000000F03E0700000758
:101C50003EF0000000000000000000000000000056
:101C600000000000000000000000000080C0F03F05
:101C700003000000000000033FF0C08000000000EF
:101C80000000000000000000000000000000000054
:101C90000000000000000000000000000000000044
:101CA0000000000000000000000000000000000034
:101CB00000000000000000000000C0E06030303094
:101CC00030303060E0C00000000000000000000084
:101CD0000000000000000000000000000000003FC5
:101CE000FFC08010222020221080C0FF3F00000093
:101CF0000000000000C060A060C000000000000004
:101D0000000000000000000181C343FFFF43434186
:101D100041402020201010080402010103020301A9
:101D200000000000000000000000000000FE0300B2
:101D300000FFFF00000000000000000000000000A5
:101D40000000000000000000000000000000000093
:101D50000000000F0000C07F7FC0000000000000F6
:101D60000000000000000000000000000000000073
:101D700000000000000000000000F03E0700000727
:101D80003EF0000000000000000000000000000025
:101D900000000000000000000000000080C0F03FD4
:101DA00003000000000000033FF0C08000000000BE
:101DB0000000000000000000000000000000000023
:101DC0000000000000000000000000000000000013
:101DD0000000000000000000000000000000000003
:101DE00000000000000000000000C0E06030303063
:101DF00030303060E0C00000000000000000000053
:101E00000000000000000000000000000000003F93
:101E1000FFC08010222020221080C0FF3F00000061
:101E200000000000807E1B151B0E0000000000005B
:101E3000000000000000000181C343FFFF43434155
:101E40004140202020101008040201000000000082
:101E500000000000000000000000000000FE030081
:101E600000FFFF0000000000000000000000000074
:101E70000000000000000000000000000000000062
:101E80000000000F0000C07F7FC0000000000000C5
:101E90000000000000000000000000000000000042
:101EA00000000000000000000000F03E07000007F6
:101EB0003EF00000000000000000000000000000F4
:101EC00000000000000000000000000080C0F03FA3
:101ED00003000000000000033FF0C080000000008D
:101EE00000000000000000000000000000000000F2
:101EF00000000000000000000000000000000000E2
:101F000000000000000000000000000000000000D1
:101F100000000000000000000000C0E06030303031
:101F200030303060E0C00000000000000038EC54A9
:101F30006C38000000000000000000000000003FBE
:101F4000FFC08010222020221080C0FF3F00000030
:101F5000000000F807000000000000000000000082
:101F6000000000000000000181C343FFFF43434124
:101F7000414020202010100C030000000000000051
:101F800000000000000000000000000000FE030050
:101F900000FFFF0000000000000000000000000043
:101FA0000000000000000000000000000000000031
:101FB0000000000F0000C07F7FC000000000000094
:101FC0000000000000000000000000000000000011
:101FD00000000000000000000000F03E07000007C5
:101FE0003EF00000000000000000000000000000C3
:101FF00000000000000000000000000080C0F03F72
:1020000003000000000000033FF0C080000000005B
:1020100000000000000000000000000000000000C0
:1020200000000000000000000000000000000000B0
:10203000000000C060A060C00000000000000000C0
:1020400000000000000000000000C0E06030303000
:1020500030303060E0C000000001030203FD0000EA
:102060000000000000000000000000000000003F31
:10207000FFC08010222020221080C0FF3F000000FF
:10208000000000FF00000000000000000000000051
:10209000000000000000000181C343FFFF434341F3
:1020A000414020202010100C030000000000000020
:1020B00000000000000000000000000000FE03001F
:1020C00000FFFF0000000000000000000000000012
:1020D0000000000000000000000000000000000000
:1020E0000000000F0000C07F7FC000000000000063
:1020F00000000000000000000000000000000000E0
:1021000000000000000000000000F03E0700000793
:102110003EF0000000000000000000000000000091
:1021200000000000000000000000000080C0F03F40
:1021300003000000000000033FF0C080000000002A
:10214000000000000000000000000000000000008F
:10215000000000000000000000000000000000700F
:10216000D8A8D870000000000000000000000000A7
:1021700000000000000000000000C0E060303030CF
:1021800030303060E0C000000001020C70800000C0
:102190000000000000000000000000000000003F00
:1021A000FFC08010222020221080C0FF3F000000CE
:1021B000000000FF00000000000000000000000020
:1021C000000000000000000181C343FFFF434341C2
:1021D000414020202010100C0300000000000000EF
:1021E00000000000000000000000000000FE0300EE
:1021F00000FFFF00000000000000000000000000E1
:1022000000000000000000000000000000000000CE
:102210000000000F0000C07F7FC000000000000031
:1022200000000000000000000000000000000000AE
:1022300000000000000000000000F03E0700000762
:102240003EF0000000000000000000000000000060
:1022500000000000000000000000000080C0F03F0F
:1022600003000000000000033FF0C08000000000F9
:10227000000000000000000000000000000000005E
:1022800000000000000000000000000000386C5456
:102290006CB800000000000000000000000000001A
:1022A00000000000000000000000C0E0603030309E
:1022B00030303060E0C00000010E7080000000008F
:1022C0000000000000000000000000000000003FCF
:1022D000FFC08010222020221080C0FF3F0000009D
:1022E00000FF0000000000000000000000000000EF
:1022F000000000000000000181C343FFFF43434191
:1023000041202010100C030000000000000000001D
:1023100000000000000000000000000000FE0300BC
:1023200000FFFF00000000000000000000000000AF
:10233000000000000000000000000000000000009D
:102340000000000F0000C07F7FC000000000000000
:10235000000000000000000000000000000000007D
:1023600000000000000000000000F03E0700000731
:102370003EF000000000000000000000000000002F
:1023800000000000000000000000000080C0F03FDE
:1023900003000000000000033FF0C08000000000C8
:1023A000000000000000000000000000000000002D
:1023B00000000070D8A8D8F0808040404040808065
:1023C000800000000000000000000000000000008D
:1023D00000000000000000000000C0E0603030306D
:1023E00030303060E0C000010E708000000000005E
:1023F0000000000000000000000000000000003F9E
:10240000FFC08010222020221080C0FF3F0000006B
:10241000FF000000000000000000000000000000BD
:10242000000000000000000181C343FFFF4343415F
:10243000412020100C0300000000000000000000FC
:1024400000000000000000000000000000FE03008B
:1024500000FFFF000000000000000000000000007E
:10246000000000000000000000000000000000006C
:102470000000000F0000C07F7FC0000000000000CF
:10248000000000000000000000000000000000004C
:1024900000000000000000000000F03E0700000700
:1024A0003EF00000000000000000000000000000FE
:1024B00000000000000000000000000080C0F03FAD
:1024C00003000000000000033FF0C0800000000097
:1024D000000000000000000000000000000000E01C
:1024E000B050B0E00000000000000000000000005C
:1024F00000000000000000000000000000000000DC
:1025000000000000000001010101C1E16131313131
:1025100031313162E2C20204087080000000000024
:102520000000000000000000000000000000003F6C
:10253000FFC08010222020221080C0FF3F0000003A
:10254000FF0000000000000000000000000000008C
:10255000000000000000000181C343FFFF4343412E
:10256000412020100C0300000000000000000000CB
:1025700000000000000000000000000000FE03005A
:1025800000FFFF000000000000000000000000004D
:10259000000000000000000000000000000000003B
:1025A0000000000F0000C07F7FC00000000000009E
:1025B000000000000000000000000000000000001B
:1025C00000000000000000000000F03E07000007CF
:1025D0003EF00000000000000000000000000000CD
:1025E00000000000000000000000000080C0F03F7C
:1025F00003000000000000033FF0C0800000000066
:1026000000000000000000000000000000000000CA
:1026100000000000000000000000000000000000BA
:1026200000000000000000000000000000000000AA
:1026300000000E1B151B0E020201C1E16131313198
:1026400031313262E2C202040870800000000000F2
:102650000000000000000000000000000000003F3B
:10266000FFC08010222020221080C0FF3F00000009
:10267000FF0000000000000000000000000000005B
:10268000000000000000000181C343FFFF434341FD
:10269000412020100C03000000000000000000009A
:1026A00000000000000000000000000000FE030029
:1026B00000FFFF000000000000000000000000001C
:1026C000000000000000000000000000000000000A
:1026D0000000000F0000C07F7FC00000000000006D
:1026E00000000000000000000000000000000000EA
:1026F00000000000000000000000F03E070000079E
:102700003EF000000000000000000000000000009B
:1027100000000000000000000000000080C0F03F4A
:1027200003000000000000033FF0C0800000000034
:102730000000000000000000000000000000008019
:10274000C040C08000000000000000000000000049
:102750000000000000000000000000000000000079
:1027600000000000000306050603C1E161313131BC
:1027700031313262E2C202040870800000000000C1
:102780000000000000000000000000000000003F0A
:10279000FFC08010222020221080C0FF3F000000D8
:1027A000FF0000000000000000000000000000002A
:1027B000000000000000000181C343FFFF434341CC
:1027C000412020100C030000000000000000000069
:1027D00000000000000000000000000000FE0300F8
:1027E00000FFFF00000000000000000000000000EB
:1027F00000000000000000000000000000000000D9
:102800000000000F0000C07F7FC00000000000003B
:1028100000000000000000000000000000000000B8
:1028200000000000000000000000F03E070000076C
:102830003EF000000000000000000000000000006A
:1028400000000000000000000000000080C0F03F19
:1028500003000000000000033FF0C0800000000003
:102860000000000000000000000000000000000068
:102870000000E0B050B06040808000000000000028
:102880000000000000000000000000000000000048
:1028900000000000000000000001C1E160303030A5
:1028A00031313262E4C40408087080000000000086
:1028B0000000000000000000000000000000003FD9
:1028C000FFC08010222020221080C0FF3F000000A7
:1028D000FF000000000000000000000000000000F9
:1028E000000000000000000181C343FFFF4343419B
:1028F000412020100C030000000000000000000038
:1029000000000000000000000000000000FE0300C6
:1029100000FFFF00000000000000000000000000B9
:1029200000000000000000000000000000000000A7
:102930000000000F0000C07F7FC00000000000000A
:102940000000000000000000000000000000000087
:1029500000000000000000000000F03E070000073B
:102960003EF0000000000000000000000000000039
:1029700000000000000000000000000080C0F03FE8
:1029800003000000000000033FF0C08000000000D2
:102990000000000000000000000000000000000037
:1029A00000000000000070D8A8D8704080800000AF
:1029B0000000000000000000000000000000000017
:1029C00000000000000000000000C0E06030303077
:1029D00030303060E1C20408106080000000000068
:1029E0000000000000000000000000000000003FA8
:1029F000FFC08010222020221080C0FF3F00000076
:102A0000FF000000000000000000000000000000C7
:102A1000000000000000000181C343FFFF43434169
:102A2000412020100C030000000000000000000006
:102A300000000000000000000000000000FE030095
:102A400000FFFF0000000000000000000000000088
:102A50000000000000000000000000000000000076
:102A60000000000F0000C07F7FC0000000000000D9
:102A70000000000000000000000000000000000056
:102A800000000000000000000000F03E070000070A
:102A90003EF0000000000000000000000000000008
:102AA00000000000000000000000000080C0F03FB7
:102AB00003000000000000033FF0C08000000000A1
:102AC0000000000000000000000000000000000006
:102AD0000000000000000000001C362A361C20C048
:102AE00000000000000000000000000000000000E6
:102AF00000000000000000000000C0E06030303046
:102B000030303060E0C0030C106080000000000036
:102B10000000000000000000000000000000003F76
:102B2000FFC08010222020221080C0FF3F00000044
:102B3000FF00000000000000000000000000000096
:102B4000000000000000000181C343FFFF43434138
:102B5000412020100C0300000000000000000000D5
:102B600000000000000000000000000000FE030064
:102B700000FFFF0000000000000000000000000057
:102B80000000000000000000000000000000000045
:102B90000000000F0000C07F7FC0000000000000A8
:102BA0000000000000000000000000000000000025
:102BB00000000000000000000000F03E07000007D9
:102BC0003EF00000000000000000000000000000D7
:102BD00000000000000000000000000080C0F03F86
:102BE00003000000000000033FF0C0800000000070
:102BF00000000000000000000000000000000000D5
:102C0000000000000000000000000000070D0A0D99
:102C1000078000000000000000000000000000002D
:102C200000000000000000000000C0E06030303014
:102C300030303060E0C000071820C0000000000005
:102C40000000000000000000000000000000003F45
:102C5000FFC08010222020221080C0FF3F00000013
:102C600000FF000000000000000000000000000065
:102C7000000000000000000181C343FFFF43434107
:102C80004120202010080601000000000000000084
:102C900000000000000000000000000000FE030033
:102CA00000FFFF0000000000000000000000000026
:102CB0000000000000000000000000000000000014
:102CC0000000000F0000C07F7FC000000000000077
:102CD00000000000000000000000000000000000F4
:102CE00000000000000000000000F03E07000007A8
:102CF0003EF00000000000000000000000000000A6
:102D000000000000000000000000000080C0F03F54
:102D100003000000000000033FF0C080000000003E
:102D200000000000000000000000000000000000A3
:102D30000000000000000000000000000000000192
:102D4000030203010000000000000000000000007A
:102D500000000000000000000000C0E060303030E3
:102D600030303060E0C000000000F00804000000D7
:102D70000000000000000000000000000000003F14
:102D8000FFC08010222020221080C0FF3F000000E2
:102D9000C07F0000000000000000000000000000F4
:102DA000000000000000000181C343FFFF434341D6
:102DB0004120202010180F0000000000000000003B
:102DC00000000000000000000000000000FE030002
:102DD00000FFFF00000000000000000000000000F5
:102DE00000000000000000000000000000000000E3
:102DF0000000000F0000C07F7FC000000000000046
:102E000000000000000000000000000000000000C2
:102E100000000000000000000000F03E0700000776
:102E20003EF0000000000000000000000000000074
:102E300000000000000000000000000080C0F03F23
:102E400003000000000000033FF0C080000000000D
:102E50000000000000000000000000000000000072
:102E60000000000000000000000000000000000062
:102E70000000000000000000000000000000000052
:102E800000000000000000000000C0E060303030B2
:102E900030303060E0C00000000000C000000000E2
:102EA0000000000000000000000000000000003FE3
:102EB000FFC08010222020221080C0FF3F000000B1
:102EC0000007F80000000000000000000000000003
:102ED000000000000000000181C343FFFF434341A5
:102EE0004120202020100C03000000000000000002
:102EF00000000000000000000000000000FE0300D1
:102F000000FFFF00000000000000000000000000C3
:102F100000000000000000000000000000000000B1
:102F20000000000F0000C07F7FC000000000000014
:102F30000000000000000000000000000000000091
:102F400000000000000000000000F03E0700000745
:102F50003EF0000000000000000000000000000043
:102F600000000000000000000000000080C0F03FF2
:102F700003000000000000033FF0C08000000000DC
:102F80000000000000000000000000000000000041
:102F90000000000000000000000000000000000031
:102FA0000000000000000000000000000000000021
:102FB00000000000000000000000C0E06030303081
:102FC00030303060E0C00000000000000000000071
:102FD0000000000000000000000000000000003FB2
:102FE000FFC08010222020221080C0FF3F00000080
:102FF0000000000000800000000000000000000051
:10300000000000000000000181C343FFFF43434173
:1030100041202020201008080402010000000000C8
:1030200000000000000000000000000000FE03009F
:1030300000FFFF0000000000000000000000000092
:103040000000000000000000000000000000000080
:103050000000000F0000C07F7FC0000000000000E3
:103060000000000000000000000000000000000060
:1030700000000000000000000000F03E0700000714
:103080003EF0000000000000000000000000000012
:1030900000000000000000000000000080C0F03FC1
:1030A00003000000000000033FF0C08000000000AB
:1030B0000000000000000000000000000000000010
:1030C0000000000000000000000000000000000000
:1030D00000000000000000000000000000000000F0
:1030E00000000000000000000000C0E06030303050
:1030F00030303060E0C00000000000000000000040
:103100000000000000000000000000000000003F80
:10311000FFC08010222020221080C0FF3F0000004E
:10312000000000000000000000000000000000009F
:10313000000000000000000181C343FFFF43434142
:10314000412020202010101010100808000000005E
:1031500000000000000000000000000000FE03006E
:1031600000FFFF0000000000000000000000000061
:10317000000000000000000000000000000000004F
:103180000000000F0000C07F7FC0000000000000B2
:10319000000000000000000000000000000000002F
:1031A00000000000000000000000F03E07000007E3
:1031B0003EF00000000000000000000000000000E1
:1031C00000000000000000000000000080C0F03F90
:1031D00003000000000000033FF0C080000000007A
:1031E00000000000000000000000000000000000DF
:1031F00000000000000000000000000000000000CF
:1032000000000000000000000000000000000000BE
:1032100000000000000000000000C0E0603030301E
:1032200030303060E0C0000000000000000000000E
:103230000000000000000000000000000000003F4F
:10324000FFC08010222020221080C0FF3F0000001D
:10325000000000000000000000000000000000006E
:10326000000000000000000181C343FFFF43434111
:10327000414040404040202020202020000000000D
:1032800000000000000000000000000000FE03003D
:1032900000FFFF0000000000000000000000000030
:1032A000000000000000000000000000000000001E
:1032B0000000000F0000C07F7FC000000000000081
:1032C00000000000000000000000000000000000FE
:1032D00000000000000000000000F03E07000007B2
:1032E0003EF00000000000000000000000000000B0
:1032F00000000000000000000000000080C0F03F5F
:1033000003000000000000033FF0C0800000000048
:1033100000000000000000000000000000000000AD
:10332000000000000000000000000000000000009D
:10333000000000000000000000000000000000008D
:1033400000000000000000000000C0E060303030ED
:1033500030303060E0C000000000000000000000DD
:103360000000000000000000000000000000003F1E
:10337000FFC08010222020221080C0FF3F000000EC
:10338000000000000000000000000000000000003D
:10339000000000000000000181C343FFFF434341E0
:1033A000418080808080000000000000000000005C
:1033B00000000000000000000000000000FE03000C
:1033C00000FFFF00000000000000000001010101FB
:1033D00000000000000000000000000000000000ED
:1033E0000000000F0000C07F7FC000000000000050
:1033F00000000000000000000000000000000000CD
:1034000000000000000000000000F03E0700000780
:103410003EF000000000000000000000000000007E
:1034200000000000000000000000000080C0F03F2D
:1034300003000000000000033FF0C0800000000017
:10344000000000000000000000000000000000007C
:10345000000000000000000000000000000000006C
:10346000000000000000000000000000000000005C
:1034700000000000000000000000C0E060303030BC
:1034800030303060E0C000000000000000000000AC
:103490000000000000000000000000000000003FED
:1034A000FFC08010222020221080C0FF3F000000BB
:1034B000000000000000000000000000000000000C
:1034C000000000000000000181C343FFFF4343C12F
:1034D000810000000000000000000000000000006B
:1034E00000000000000000000000000000FE0300DB
:1034F00000FFFF00000001020204040808100000A1
:1035000000000000000000000000000000000000BB
:103510000000000F0000C07F7FC00000000000001E
:10352000000000000000000000000000000000009B
:1035300000000000000000000000F03E070000074F
:103540003EF000000000000000000000000000004D
:1035500000000000000000000000000080C0F03FFC
:1035600003000000000000033FF0C08000000000E6
:10357000000000000000000000000000000000004B
:10358000000000000000000000000000000000003B
:10359000000000000000000000000000000000002B
:1035A00000000000000000000000C0E0603030308B
:1035B00030303060E0C0000000000000000000007B
:1035C0000000000000000000000000000000003FBC
:1035D000FFC08010222020221080C0FF3F0000008A
:1035E00000000000000000000000000000000000DB
:1035F000000000000000000181C343FFFF4343C1FE
:103600008100000000000000000000000000000039
:1036100000000000000000000000000000FE0300A9
:1036200000FFFF00000001070810E000000000009C
:10363000000000000000000000000000000000008A
:103640000000000F0000C07F7FC0000000000000ED
:10365000000000000000000000000000000000006A
:1036600000000000000000000000F03E070000071E
:103670003EF000000000000000000000000000001C
:1036800000000000000000000000000080C0F03FCB
:1036900003000000000000033FF0C08000000000B5
:1036A000000000000000000000000000000000001A
:1036B000000000000000000000000000000000000A
:1036C00000000000000000000000000000000000FA
:1036D00000000000000000000000C0E0603030305A
:1036E00030303060E0C0000000000000000000004A
:1036F0000000000000000000000000000000003F8B
:10370000FFC08010222020221080C0FF3F00000058
:1037100000000000000000000000000000000000A9
:10372000000000000000000181C343FFFF4343C1CC
:103730008100000000000000000000000000000008
:1037400000000000000000000000000000FE030078
:1037500000FFFF00000001FF00000000000000006B
:103760000000000000000000000000000000000059
:103770000000000F0000C07F7FC0000000010000BB
:103780000000000000000000000000000000000039
:1037900000000000000000000000F03E07000007ED
:1037A0003EF00000000000000000000000000000EB
:1037B00000000000000000000000000080C0F03F9A
:1037C00003000000000000033FF0C0800000000084
:1037D00000000000000000000000000000000000E9
:1037E00000000000000000000000000000000000D9
:1037F00000000000000000000000000000000000C9
:1038000000000000000000000000C0E06030303028
:1038100030303060E0C00000000000000000000018
:103820000000000000000000000000000000003F59
:10383000FFC08010222020221080C0FF3F00000027
:103840000000000000000000000000000000000078
:10385000000000000000000181C343FFFF4343C19B
:1038600081000000000000000000000000000000D7
:1038700000000000000000000000000000FE030047
:1038800000FFFF00000003FE000000000000000039
:103890000000000000000000000000000000000028
:1038A0000000000F0000C07F7FC00000000F00007C
:1038B0000000000000000000000000000000000008
:1038C00000000000000000000000F03E07000007BC
:1038D0003EF00000000000000000000000000000BA
:1038E00000000000000000000000000080C0F03F69
:1038F00003000000000000033FF0C0800000000053
:1039000000000000000000009032000A80903300A8
:103910000A809034000A809035000A809036000AB0
:10392000809037000A809038000A809039000A8021
:10393000903A000A80903B000A80903C000A8090F8
:103940003D000A80903E000A80903F000A8090402F
:10395000000A809041000A809042000A8090430053
:103960000A809044000A809045000A80F09055003B
:103970001980905A006480F0903C00C880903B0011
:10398000C880903A00C8809039025880F090780042
:103990001480907700148090760014809075001445
:1039A00080907400148090730014809072001480D2
:1039B00090710014809070001480906F00148090BB
:1039C0006E001480906D001480906C001480906BD9
:1039D000001480906A001480906900148090680040
:1039E0001480906700148090660014809065001425
:1039F00080F0080B0002020200000904000001022E
:103A00000200000524001001052401010104240224
:103A10000605240600010705810310004009040182
:103A200000020A00000007050202400000070583AB
:103A3000024000000403090412010002EF020140E9
:103A40004123368000010102030141726475696EF1
:103A50006F204C4C430041726475626F7900B1294C
:103A600011241FBECFEFDAE0DEBFCDBF11E0A0E032
:103A7000B1E0E2EDF9E602C005900D92A634B1077F
:103A8000D9F726E0A6E4B1E001C01D92A239B20741
:103A9000E1F71DE1C0E3DDE104C02197FE010E94D2
:103AA000E134CF32D107C9F70E94EC290C94E734F6
:103AB0000C940000809146010895E4E1F2E0A0E05A
:103AC000B8E000800EBC8111012C1197A0FDFDCF44
:103AD0000192B9F70DB40895FC0180911302882377
:103AE00011F13FB7F89482E08093E9002091F20051
:103AF000822F90E01816190614F481E090E08823D4
:103B000039F0289844E6409312024091F100408336
:103B1000222339F02091F200211103C02BE62093DB
:103B2000E8003FBF08958FEF9FEF08952FB7F894F7
:103B300083E08093E9009091E800892F807295FFDF
:103B400004C09091F20080E4891B2FBF08958091FA
:103B50000A0281110DC082E08093060284E0809306
:103B60000702109209021092080281E080930A0273
:103B700086E092E00895CF93DF931F92CDB7DEB732
:103B80006983DC01ED91FC910280F381E02D41E03D
:103B900050E0BE016F5F7F4F09950F90DF91CF918D
:103BA000089583E08093E9008091F200882319F062
:103BB0008AE38093E80008950E94961D90E008959E
:103BC000CF93DF931F92CDB7DEB7FC018485958537
:103BD00097FD08C02FEF3FEF358724870F90DF91C7
:103BE000CF910895CE0101960E946C1D019719F4A2
:103BF000898190E0F3CF8FEF9FEFF0CF0F931F936A
:103C0000CF93DF931F92CDB7DEB78C01FC01848583
:103C1000958597FF0BC0CE0101960E946C1D019700
:103C200071F4898190E0F80195878487F801848593
:103C300095850F90DF91CF911F910F9108958FEF90
:103C40009FEFF1CFFC018485958597FD0BC09FB751
:103C5000F89482E08093E9008091F2009FBF90E0A9
:103C6000019608959FB7F89482E08093E9008091CF
:103C7000F2009FBF90E00895409100025091010230
:103C80002091FE013091FF0142175307B4F4909147
:103C9000E8009570E1F39091E80092FD19C08093DF
:103CA000F100809100029091010201968F73992793
:103CB000892B19F48EEF8093E80080910002909197
:103CC00001020196909301028093000281E0089521
:103CD00080E00895DF92EF92FF920F931F93CF93AE
:103CE000DF93D82E8A01EB017B01E40EF51ECE1581
:103CF000DF0559F0D7FE12C0FE0184910E943C1EE0
:103D000021968111F4CF0FEF1FEFC801DF91CF9102
:103D10001F910F91FF90EF90DF9008958881EECF73
:103D20000F931F93CF93DF931F92CDB7DEB782E03F
:103D3000898342E450E062EF79E380E80E946A1EE2
:103D40000E94A71DDC0112960D911C910115110511
:103D500089F0D801ED91FC910280F381E02DBE0144
:103D60006F5F7F4FC801099597FD04C0F80100857A
:103D70001185ECCF89810F90DF91CF911F910F9129
:103D80000895615030F02091F100FC0120830196EC
:103D9000F8CF289884E68093120208953FB7F894EC
:103DA0008091FA019091FB01A091FC01B091FD017D
:103DB00026B5A89B05C02F3F19F00196A11DB11D86
:103DC0003FBFBA2FA92F982F8827BC01CD01620FC2
:103DD000711D811D911D42E0660F771F881F991F7D
:103DE0004A95D1F708958F929F92AF92BF92CF924A
:103DF000DF92EF92FF926B017C010E94CE1E4B017D
:103E00005C01C114D104E104F104B9F00E94CE1E9A
:103E1000681979098A099B09683E734081059105F3
:103E200080F321E0C21AD108E108F10888EE880E7B
:103E300083E0981EA11CB11CE4CFFF90EF90DF90AF
:103E4000CF90BF90AF909F908F9008958F929F9248
:103E5000AF92BF92CF92DF92EF92FF920F931F9398
:103E6000CF93DF936C017B018A0180911601882337
:103E700009F45CC080911302882309F457C0809133
:103E8000050280FF05C08091E00082608093E00021
:103E9000E801B12C8AEFA82E93E0892E2AE3922E16
:103EA000209711F4BB20D9F10E94961D81110AC000
:103EB000AA94AA20D9F161E070E080E090E00E942D
:103EC000F31EEECF8C171D0611F00CF08C2F9FB750
:103ED000F8948092E9002091E80025FD02C09FBF80
:103EE000DFCF282F30E0C21BD30BF701815020F029
:103EF00041914093F100FACFE20EF31EBB2021F076
:103F00009092E800B12CEBCF8091E80085FDE7CFDF
:103F10009092E800BB24B394209709F3F3CF5D9807
:103F200084E680930402101611063CF081E090E0D4
:103F3000F6019383828310E000E0C801DF91CF9106
:103F40001F910F91FF90EF90DF90CF90BF90AF90B7
:103F50009F908F900895EF92FF920F931F93CF93AE
:103F6000DF938C017B01D0E0C0E0F701EC0FFD1F77
:103F70006491662361F0D801ED91FC910190F0818C
:103F8000E02DC8010995892B11F02196EECFCE01C5
:103F9000DF91CF911F910F91FF90EF900895AF9215
:103FA000BF92CF92DF92EF92FF920F931F93CF9326
:103FB000DF936C017B018B01040F151FEB015E0188
:103FC000AE18BF08C017D10759F06991D601ED911D
:103FD000FC910190F081E02DC6010995892B79F7BC
:103FE000C501DF91CF911F910F91FF90EF90DF906E
:103FF000CF90BF90AF900895CF92DF92EF92FF9253
:104000001F93CF93DF93E82FF0E0E45EFE4F108123
:10401000E62FF0E0603398F5EA55F94FE491CE2FA2
:10402000D0E0F12CE12C60E074E284EF90E0A70195
:104030009E010E945634215031094109510991E0F5
:104040002115310581E0480751056CF060E970EDFC
:1040500083E090E0A7019E010E945634215031096F
:104060004109510993E0113089F0133019F1DF91C2
:10407000CF911F91FF90EF90DF90CF900895EE0FBA
:10408000FF1FEA55FA4FC591D491CBCF8091E4013F
:104090008111EDCF80918100887F892B80938100F1
:1040A000309389002093880080916F008260809314
:1040B0006F00DDCF80919100887F892B80939100E4
:1040C0003093990020939800D0935701C0935601E4
:1040D00081E080935501809171008260809371002E
:1040E000C6CFE82FF0E0E45EFE4F8081813019F00A
:1040F0008330A9F008958091E40181110FC080916F
:104100006F008D7F80936F0080914C01E0914A0198
:10411000F0914B01908180958923808308951092BE
:1041200055018091E2018111F9CF80915301E09115
:104130005101F0915201EECFCF93DF93D1E0E091A6
:10414000E701F091E801AF014F5F5F4F5093E80145
:104150004093E7012491822F807FC22FCF70803857
:1041600021F48C2F0E947120EACF803919F5E0915B
:104170008606F091870609958D2780935401E0917A
:10418000E701F091E801CF0101969093E801809357
:10419000E70164918091E501C81788F6C13021F4E8
:1041A000809149018111CBCF67FDC9CF8C2F0E942F
:1041B000FC1FC5CF87FD3CC03296F093E801E09329
:1041C000E701FA014491A0915601B0915701322FB5
:1041D000242F0E94AA346C507E4F8F4F9F4F28EEA1
:1041E00033E040E050E00E94883420934D0130934A
:1041F0004E0140934F015093500180914D01909199
:104200004E01A0914F01B0915001892B8A2B8B2B2D
:1042100061F481E090E0A0E0B0E080934D019093E4
:104220004E01A0934F01B0935001DF91CF910895BB
:10423000803E49F48091E9019091EA019093E80170
:104240008093E7017CCF803F09F079CF1092E6019F
:10425000ECCF9091E501923009F471C0292F30E044
:10426000F901E45EFE4F4081295B3E4FF9018083F6
:10427000913031F420914701281302C090934901F5
:104280009F5F9093E50190E0FC01E951FA4F249182
:1042900088539A4FFC01849130E0220F331FF901BB
:1042A000E654FA4F65917491F901E455FA4FA591DE
:1042B000B4919C91982B9C93413019F04330D9F0E4
:1042C000089590916400977F90936400109280000D
:1042D000109281009091810098609093810090915C
:1042E000810091609093810070934B0160934A012B
:1042F00080934C01089590916500977F909365009D
:10430000109290001092910090919100986090937B
:10431000910090919100916090939100709352015F
:1043200060935101809353018091E501882321F02E
:104330006CE380E00E94FC1F80E00C9471200895E3
:104340004F925F926F927F928F929F92AF92BF92A5
:10435000CF92DF92EF92FF920F931F93CF93DF9351
:104360004C015901FC2DC02FD0E0CE01880D991DC4
:10437000181619060CF06CC020E8821691040CF097
:1043800067C09B012E0D311D121613060CF060C084
:10439000603471050CF05CC04115510509F458C03A
:1043A000E62FE770FE2EDB0177FD179633E0B5951B
:1043B000A7953A95E1F73A2F77FF04C0FF2011F057
:1043C0003FEF3A0F662777276819790997FC02C0F3
:1043D00070E060E0803891050CF44BC090E89819CB
:1043E000961BA32F032E000CBB0B1A2F10953F3FDB
:1043F0000CF010E021E08E2D877009F420E0E694A7
:10440000E694E694E20EAE0DB11D19971CF028E07B
:10441000E22EE31AE11A310F20E83203D001112411
:10442000A80DB91DA60FB71F019F600D711D1124A6
:10443000460F571F0F2D0F2C000C110BF33009F4F2
:104440001CC1C8F4F13009F4D0C0F23009F47CC0CA
:10445000DF91CF911F910F91FF90EF90DF90CF9060
:10446000BF90AF909F908F907F906F905F904F9094
:104470000895902FB5CFFA3FB1F1232F2E0DFB3FBA
:1044800039F7321729F3BD016C5E7D4FD12CC12C59
:10449000C91608F0A4C0FA01EC0DFD1DE491F0E08E
:1044A0004F01002E02C0880C991C0A94E2F737FDD8
:1044B00006C0FB018081E82CE0948E218083FF20E0
:1044C00061F0373054F45B01F0E8AF0EB11CE92C19
:1044D000E094F50180818E218083FFEFCF1ADF0AFF
:1044E0006F5F7F4FD5CF232F2E0D321709F4B0CF3A
:1044F000BD016C5E7D4FD12CC12CC91608F069C07E
:10450000FA01EC0DFD1DE491F0E04F01002E02C018
:10451000880C991C0A94E2F737FD04C0FB018081E6
:1045200088298083FF2051F0373044F45B01F0E8A4
:10453000AF0EB11CF501808189298083FFEFCF1A6E
:10454000DF0A6F5F7F4FD9CF6FEF70E00F2C02C093
:10455000660F771F0A94E2F760957095772E232FE8
:104560002E0D321709F474CFFD01EC5EFD4F6F0183
:10457000B12CA12CA91638F5FA01EA0DFB1DE49126
:10458000F0E02F01002E02C0440C551C0A94E2F703
:1045900037FD05C0F6018081862384298083FF20B2
:1045A00059F037304CF44601F0E88F0E911CF401BD
:1045B0008081872185298083FFEFAF1ABF0A8FEFA3
:1045C000C81AD80AD7CF3F5F4C0F5D1FA058BF4F06
:1045D000C8CF3F5F4C0F5D1FA058BF4F86CF3F5FD6
:1045E0004C0F5D1FA058BF4F4CCF6A0D7B1D232F72
:1045F0002E0D321709F42CCFFD01EC5EFD4F6F013B
:10460000B12CA12CA91688F5FB01EA0DFB1D8490A5
:10461000912C002E02C0880C991C0A94E2F7809419
:104620009094FA01EA0DFB1D6490712C002E02C0DB
:10463000660C771C0A94E2F737FD05C0F60180810D
:10464000882186298083FF2049F037303CF4F60129
:10465000E058FF4F8081892187298083FFEFAF1ABF
:10466000BF0A8FEFC81AD80ACDCF3F5F4C0F5D1F2E
:104670006C0F7D1FA058BF4FBCCFC92ED12CFA01A3
:10468000E60FF71FAC5EBD4F00E810E00C191D09E6
:10469000CC19DD09BE01660F771F41E050E06A01C9
:1046A0000F2C01C0CC0C0A94EAF7592F2E2D792E2D
:1046B000CF93DF93ED01EF96EF9622968590A5902C
:1046C000FF2059F08C9C4001AC9C500137302CF4F9
:1046D000E880B094EB20E928E99233233AF0EC909B
:1046E000A094EA20E828ED920C94772311965A952D
:1046F00029F72A9551F0572D33951124E60FF11D16
:10470000A00FB11DC00FD11DD9CFDF91CF911124C2
:104710009FCECF92EF920F93CF93DF93DC01FA01FC
:1047200004913196E4904E5F5F4F2223D1F0C1E0B7
:10473000D0E09E2D977011F4D0E0C0E0EE2DE6950C
:10474000E695E695EC0FFD2FF11D0E9FE0010F9F02
:10475000D00D11242C9FC0012D9F900D1124480FC6
:10476000591F8AEFC82E30E020E0CD010E94A02121
:10477000DF91CF910F91EF90CF900895CF92EF926C
:104780000F93CF93DF93DC01FA0104913196E4900B
:104790004E5F5F4F2223D1F0C1E0D0E09E2D977095
:1047A00011F4D0E0C0E0EE2DE695E695E695EC0F2D
:1047B000FD2FF11D0E9FE0010F9FD00D11242C9FA6
:1047C000C0012D9F900D1124480F591F82E0C82E63
:1047D00030E020E0CD010E94A021DF91CF910F9128
:1047E000EF90CF9008952D9A0895BC0190E080E05D
:1047F0000C94F31E8FB18095807F669B88601C9B14
:1048000084600895109246013E983F9808953E9A1C
:104810003F9A81E08093460108959091EF0198239B
:1048200029F49091F001982381E009F480E0089543
:10483000CF93C82F0E94FA23982F9C2381E09C13CA
:1048400080E0CF91089580E00C945D1D8038910543
:10485000B8F460347105A0F420E191E061FD94E0CA
:1048600060FD990F62FD9295687F269FD00111240B
:10487000A80FAC5EBD4F8C9140FF03C0892B8C9379
:10488000089590958923FBCFEF92FF920F931F938A
:10489000CF93DF937C018B01040F111DEB0177FF98
:1048A00002C0D0E0C0E0C8010134110514F080E47A
:1048B00090E0C817D9073CF441E0BE01C7010E944F
:1048C00026242196F0CFDF91CF911F910F91FF9079
:1048D000EF9008952F923F924F925F926F927F9246
:1048E0008F929F92AF92BF92CF92DF92EF92FF9200
:1048F0000F931F93CF93DF9300D000D000D01F926F
:10490000CDB7DEB76D30D9F0309001014090F301A2
:104910005090F401832D90E09F838E836A3051F58F
:104920001092F2011092F10123E0880F991F2A954D
:10493000E1F7480E591E5092F4014092F30181E0D4
:1049400090E027960FB6F894DEBF0FBECDBFDF9183
:10495000CF911F910F91FF90EF90DF90CF90BF907C
:10496000AF909F908F907F906F905F904F903F900F
:104970002F900895A090F101B090F20195E0699F09
:10498000B0011124FB01E455FF4F3F016501212CCB
:10499000F5E02F1629F1C3010196F301F491F98393
:1049A0003C01420128E02A83898181708D8310E0D7
:1049B00000E00315D0F4F801EC0DFD1DFC83EB8342
:1049C000F12CE12CE31470F4B4016E0D7F1D4D81C8
:1049D0008B819C810E942624FFEFEF1AFF0AF2CF01
:1049E0001982DFCF0F5F1F4FE4CF298126952983DE
:1049F0008A8181508A83EE81FF818E0E9F1E8111F4
:104A0000D3CF2394CE0EDF1EF6E02F12C1CFC50107
:104A1000329C800D911D11249093F2018093F1013D
:104A20008ECF089590E080E00895FB010190002072
:104A3000E9F73197AF01461B570BDC01ED91FC9173
:104A40000280F381E02D09948F929F92AF92BF92E2
:104A5000EF92FF920F931F93CF93DF93CDB7DEB703
:104A6000A1970FB6F894DEBF0FBECDBF7C019B01AE
:104A700050E040E019A28E010F5D1F4F8AE0882EA2
:104A8000912CA12CB12CCA01B901A50194010E945D
:104A90008834605DF80162938F012115310541056D
:104AA000510589F790E080E0309721F0C701BF0100
:104AB0000E941525A1960FB6F894DEBF0FBECDBF9C
:104AC000DF91CF911F910F91FF90EF90BF90AF902A
:104AD0009F908F9008950F931F93CF93DF93EC01D6
:104AE0000E94AB1F8C0163E471E0CE010E9415258A
:104AF000800F911FDF91CF911F910F9108950C941A
:104B00004034CF92DF92EF92FF926B017C01C1148F
:104B1000D104E104F10441F00E94E833A7019601B9
:104B20000E9456346B017C01C701B601FF90EF90E3
:104B3000DF90CF900895CF93DF93C4E1D6E060E893
:104B400070E080E090E00E9481257983688365E3CE
:104B500070E080E090E00E948125685F7F4F8F4F7A
:104B60009F4F7B836A8364E070E080E090E00E9466
:104B700081256C83259686E0C233D80701F7DF9143
:104B8000CF9108951F920F920FB60F9211248F9319
:104B90009F938091E1009091E100937F9093E100D9
:104BA00083FF0FC01092E90091E09093EB00109208
:104BB000EC0092E39093ED001092130298E0909332
:104BC000F00082FF22C093E09093E9009091F20000
:104BD000992319F09AE39093E800909104029923A5
:104BE00041F090910402915090930402911101C000
:104BF0005D9A90911202992341F090911202915086
:104C000090931202911101C0289A84FF18C08091DC
:104C1000E2008E7E81608093E2008091E1008F7ED1
:104C20008093E100809105028E7E80618093050271
:104C30009F918F910F900FBE0F901F90189580FF3E
:104C4000F7CF8091E2008E7E80618093E2008091B8
:104C5000E1008E7E8093E100809105028E7E81606E
:104C6000E5CF1F920F920FB60F921124CF92DF92D1
:104C7000EF92FF920F931F932F933F934F935F9366
:104C80006F937F938F939F93AF93BF93EF93FF9314
:104C9000CF93DF93CDB7DEB76C97DEBFCDBF109259
:104CA000E9008091E80083FF25C068E0CE014596C9
:104CB0000E94C11E82EF8093E8008D8987FF39C072
:104CC0009091E80090FFFCCF982F907609F034C1C6
:104CD0009E894F89588D2F89F88C911131C0803869
:104CE00061F5809103028093F1001092F1008EEF44
:104CF0008093E8006C960FB6F894DEBF0FBECDBF70
:104D0000DF91CF91FF91EF91BF91AF919F918F91E3
:104D10007F916F915F914F913F912F911F910F91D3
:104D2000FF90EF90DF90CF900F900FBE0F901F90ED
:104D300018959EEF9093E800C7CF1092F100D5CF61
:104D4000913059F48111D3CF4130510581F68091D2
:104D500003028D7F80930302CACF933049F48111FF
:104D6000C6CF4130510519F6809103028260F2CF1F
:104D7000953041F48091E80080FFFCCF20682093BB
:104D8000E300B5CF963009F0A9C00B8D1C8D22E051
:104D90001092E9001092010210920002F2122EC04D
:104DA0001092FF011092FE010E94901E1F8299E056
:104DB0009983FA8291E09E8390EA98879AEF998787
:104DC0002091000230910102275F3F4F3C832B83EB
:104DD0008D831092E900109201021092000210934C
:104DE000FF010093FE0149E050E0BE016F5F7F4F7D
:104DF00080E00E946A1E0E94901E79CF1093FF01EE
:104E00000093FE010E94A71DDC0112960D911C91DA
:104E10000115110509F451C1D801ED91FC910480EF
:104E2000F581E02DBE016B5E7F4FC80109950097AB
:104E300009F03EC1F80100851185EACFF3E0FF12C9
:104E40000EC08F89882309F440C0823061F440E8A5
:104E500067E086E59AE30E947E29811148CF81E2CE
:104E60008093EB0047CF813029F440E86BE08AE47F
:104E70009AE3F1CF833099F70E94A71DDC011296C7
:104E8000ED90FC908E010F5F1F4F6801E114F1045B
:104E900079F0D701ED91FC910680F781E02DB80102
:104EA000C7010995080F111DF701E084F184EECFC9
:104EB000D8011C92F60101900020E9F73197BF015B
:104EC0006C197D0940E0C601C6CF64E37AE3FB01BB
:104ED000449150E080E80E946A1E09CF973009F49F
:104EE000BECF983021F481E08093F10000CF99305B
:104EF00009F0FDCE837009F0B2CFEFE1F1E081E07F
:104F000031E096E32191222371F08093E900309300
:104F1000EB00DF0111972C912093EC009093ED00B2
:104F20008F5F873079F78EE78093EA001092EA006E
:104F30008F8980931302DBCE8B8D9C8D1092E900BC
:104F400010920102109200029093FF018093FE01E3
:104F5000898D811192C08E899D89913A49F481325F
:104F600009F07DCF47E050E06FE071E080E0B3CF23
:104F7000913209F074CF833269F48F89988DB0E053
:104F8000A0E080930B0190930C01A0930D01B093CE
:104F90000E01ADCE803269F48091E80082FFFCCF33
:104FA00067E08FE091E00E94C11E8BEF8093E800E4
:104FB0009ECE823209F09BCE8F8980931601EEEF50
:104FC000FFE7859194918B3F9C4D51F1E0E0F8E033
:104FD00080910F0190911001A0911101B0911201E7
:104FE000803B9440A105B105F1F48091160180FD4C
:104FF0001AC0EE3F8AE0F80789F587E797E79183C3
:105000008083809160008093020288E19BE00FB66C
:10501000F894A895809360000FBE9093600067CECF
:10502000EEEFFAE0D5CF808191818737974709F07D
:105030005ECEA89580916000886180936000809129
:10504000020280936000EE3F2AE0F20789F080912F
:10505000FE0A9091FF0A9183808349CE80819181DD
:105060008737980751F29093FF0A8093FE0AC5CFC5
:105070001092FF0A1092FE0A3ACE0E94A71DDC0190
:1050800012960D911C910115110509F4E8CED80175
:10509000ED91FC910190F081E02DBE016B5E7F4FA0
:1050A000C8010995811123CEF80100851185EBCF48
:1050B000181619060CF41BCED2CEF1E0FF12BECEAC
:1050C00068E37AE304CF1F920F920FB60F92112478
:1050D0002F933F938F939F93AF93BF938091F6014C
:1050E0009091F701A091F801B091F9013091F5018B
:1050F00023E0230F2D3758F50196A11DB11D2093F4
:10510000F5018093F6019093F701A093F801B09315
:10511000F9018091FA019091FB01A091FC01B091FD
:10512000FD010196A11DB11D8093FA019093FB0131
:10513000A093FC01B093FD01BF91AF919F918F911E
:105140003F912F910F900FBE0F901F90189526E85A
:10515000230F0296A11DB11DD2CF1F920F920FB641
:105160000F9211242F933F934F935F936F937F93ED
:105170008F939F93AF93BF93EF93FF9380915501CC
:10518000882389F08091E20181110DC08091540142
:10519000811109C090915301E0915101F0915201A8
:1051A0008081892780838091E601882329F180917D
:1051B0004D0190914E01A0914F01B0915001892B6A
:1051C0008A2B8B2BC9F080914D0190914E01A091BB
:1051D0004F01B09150010197A109B10980934D0190
:1051E00090934E01A0934F01B0935001892B8A2BCD
:1051F0008B2B11F40E949C20FF91EF91BF91AF91F6
:105200009F918F917F916F915F914F913F912F91DE
:105210000F900FBE0F901F9018951F920F920FB610
:105220000F9211248F939F93AF93BF93EF93FF93AC
:105230008091E401882309F454C08091DE019091AB
:10524000DF01A091E001B091E101892B8A2B8B2B2A
:10525000A1F190914C01E0914A01F0914B018081C4
:10526000892780838091DE019091DF01A091E00188
:10527000B091E101181619061A061B069CF48091DC
:10528000DE019091DF01A091E001B091E101019771
:10529000A109B1098093DE019093DF01A093E001A1
:1052A000B093E101FF91EF91BF91AF919F918F91E9
:1052B0000F900FBE0F901F9018951092E201109260
:1052C000E40180916F008D7F80936F0080914C018D
:1052D000E0914A01F0914B01908180958923808370
:1052E000E1CF809154018111DDCF90914C01E0918B
:1052F0004A01F0914B0180818927F1CFEF92FF9213
:105300000F931F93CF93DF93F82E192FE62E042FC0
:1053100081E0860F880F0E943C1E83E00E943C1EA5
:10532000CF2DD12FEC0EFD2EF11CCE15DF05B9F0DF
:1053300007FF13C0FE0184910E943C1E182F80E0DD
:105340000E943C1E812321968111EFCFDF91CF91E6
:105350001F910F91FF90EF9008958881EDCF81E02C
:10536000F5CFE2E3F6E01382128288EE93E0A0E04C
:10537000B0E084839583A683B78389E291E091832B
:1053800080838FEF9FEF95878487E9E8F6E01382AB
:1053900012828BE391E0918380838AE59DE1909373
:1053A000870680938606F0938506E093840688E856
:1053B00096E090938306809382060E949B258091BD
:1053C00090069091910690938F0680938E0680911F
:1053D000170180938D060895CF93DF9300D000D0FE
:1053E000CDB7DEB7789484B5826084BD84B5816022
:1053F00084BD85B5826085BD85B5816085BD8091A0
:105400006E00816080936E00109281008091810017
:10541000826080938100809181008160809381000F
:1054200080918000816080938000809191008260F3
:105430008093910080919100816080939100809190
:1054400090008160809390008091C100846080937F
:10545000C1008091C10082608093C1008091C10031
:1054600081608093C1008091C30081608093C300FC
:105470008091C00082608093C0008091C2008160F2
:105480008093C20080917A00846080937A0080913A
:105490007A00826080937A0080917A0081608093A4
:1054A0007A0080917A00806880937A0010921302CB
:1054B00010920302109205028091D70081608093C0
:1054C000D70080EA8093D80089B5806189BD89B50D
:1054D000826089BD09B400FEFDCF61E070E080E02C
:1054E00090E00E94F31E8091D8008F7C80618093B1
:1054F000D8008091E000807F8093E0008091E100FF
:105500008E7E8093E1008DE08093E200559A209A90
:10551000809164008E7F8093640080917A00806423
:1055200080937A0080917A0086FDFCCF009178000C
:10553000109179000E94CE1EAB01BC01C801B0E001
:10554000A0E0DC01992788278C019D01040F151F1D
:10555000261F371FC901B8012091640021602093E4
:105560006400611571058105910511F00E943734C1
:1055700081EC80937C0085B1806F85B984B1877E92
:1055800084B984B1876E84B95E9A5F988AB1806D60
:105590008AB9769A6E9881B3806F81BB899880B3FF
:1055A0008D7080BB80E58CBD81E08DBD85E090E095
:1055B0000E94F5235F9A85E090E00E94F5235E98B3
:1055C0005C98E6E8F7E084918EBD00000DB407FE1C
:1055D000FDCF319617E0E339F107A9F75C9A81E82E
:1055E00080936400809165008160809365000E94D3
:1055F000232480E80E9418248823A9F05C9885EA77
:105600008EBD00000DB407FEFDCF5C9A2E982F983A
:105610002D988091640080628093640081E083BF54
:10562000889513BEFCCF84E00E941824882309F4D7
:1056300048C02D9884E80E9418248823E1F00E9435
:10564000F32388EC90E00E94F5232F9882E090E00D
:105650000E9440348F3F29F06FEF82E090E00E947B
:10566000483484EF91E00E94F5232F9A84E80E9449
:1056700018248111FBCF84E10E9418248823E1F0D3
:105680000E94F32388EC90E00E94F5232E9882E09C
:1056900090E00E944034882329F060E082E090E0AE
:1056A0000E94483484EF91E00E94F5232E9A84E111
:1056B0000E9418248111FBCF88EC90E00E94F52312
:1056C000B2CF0E94F32382E090E00E947F258823DE
:1056D00009F44AC00E94072481E090E00E947F25DF
:1056E000282F2470922E81FF13C021112E9871EF64
:1056F000472E55245A9408E010E0E8E58E2E80E409
:105700000E941824882399F12E9A2F9A0E94F3233D
:1057100082E390E00E94F5230E94FA238111F8CFE2
:105720000E94072481E28093000185E00E942921E4
:105730008DE00E9429218FB7F8944091F601509195
:10574000F7016091F8017091F9018FBF80915A01C2
:10575000882309F4D9C010925A0180E090E0892B87
:1057600051F30E940000E7CF0E940224B5CF992098
:1057700031F034E04316510411F42E9A2F9881E051
:105780000E945D1D920157FE04C022273327241971
:10579000350927703327C20157FC079663E09595BA
:1057A00087956A95E1F757FE05C00197A801421B4E
:1057B000530B9A01BC017695762F662777956795EE
:1057C0006C5E7D4FF12CE12C3801621A730A8E3F1A
:1057D0005FEF950709F43DC08E9CD0018F9CB00D02
:1057E000112450E040E0AA52B94F5B01E0E8AE0E50
:1057F000B11C8F3F980791F0FD01E40FF51FE49174
:105800006B01C40ED51EF0E01F01022E01C0220C58
:105810000A94EAF7F60134882328248A21153105F1
:1058200099F0FD01E40FF51FE4916501C40ED51E4A
:10583000F0E01F01062C02C0359427940A94E2F789
:10584000F60134882328248A4F5F5F4F483551057D
:1058500081F6019660587F4FEA94EF2809F050C016
:105860000E9423248FE090E00E94F5232FEF421A3C
:10587000520A39E14316510409F041CF992011F041
:105880002F9A2D9880E991E00E94F5230E94F3233E
:1058900081E090E00E947F2580FF3ACF8AE090E08F
:1058A0000E947F259FEF980F9E3F08F031CF22E3A3
:1058B00030E03093F2012093F10128E330E030939F
:1058C000F4012093F3010BE010E01A830983682FA1
:1058D00089E896E00E946A2489819A810E947F2546
:1058E00009811A810F5F1F4F1A8309830131110546
:1058F00071F70E94232488EE93E00E94F52308CFDD
:10590000EE24E394F12C63CF90915B01142F191BCB
:10591000912F20910001121748F49F5F921708F011
:105920001CCF81E083BF889513BE17CF11E0109381
:105930005A0140935B0120915801309159012F5F2A
:105940003F4F3093590120935801E4E1F2E0811177
:105950008FEF002481938193819381930394D1F7F6
:105960001092F4011092F3011092F2011092F101E1
:105970008091F0018093EF010E94FA238093F0015F
:1059800020919006309191063A8329832130310588
:1059900009F40AC12230310509F4B5C0232BE9F519
:1059A0000091EE0109830F3134F081E090E0909393
:1059B00091068093900684E00E940D24882351F084
:1059C00082E090E0909391068093900610928F066B
:1059D00010928E0688E00E941824882309F46BC078
:1059E000198110310CF063C01F5F1093EE0180919C
:1059F000EC01882329F08091EE018F5F8093EE0106
:105A00008091EB0190910A01890F8093EB0189301D
:105A10000CF474C08FEF80930A01809190069091EE
:105A200091068130910509F468C48230910509F42A
:105A30000BC4892BC9F52091EE0146E053E170E0DB
:105A400060E090E080E00E94BE232091EB014CE6F4
:105A50005AE060E270E08CE390E00E94BE23809107
:105A60008406909185062091ED012111DBC321E090
:105A70002093010106E210E01093F2010093F1017E
:105A80001092F4011092F30165E57AE00E946B2513
:105A90001093F2010093F10167E47AE080918406AB
:105AA000909185060E946B250E94232456CE81E0AA
:105AB0008093ED019CCF8091EC01811198CF809172
:105AC000ED01882399F021E02093EC018DE899E322
:105AD0009093EA018093E9019093E8018093E701B4
